:0400000007EF00F016
:100008000F8209ED00F05EEF00F00600FACF01F074
:10001800FBCF02F0E9CF03F0EACF04F0E1CF05F01F
:10002800E2CF06F0D9CF07F0DACF08F0F3CF09F026
:10003800F4CF0AF0F6CF0BF0F7CF0CF0F8CF0DF0B5
:10004800F5CF0EF0F80ECF6E560ECE6E8A1E9E902D
:100058000EC0F5FF0DC0F8FF0CC0F7FF0BC0F6FF90
:100068000AC0F4FF09C0F3FF08C0DAFF07C0D9FFD0
:1000780006C0E2FF05C0E1FF04C0EAFF03C0E9FFD4
:1000880002C0FBFF01C0FAFF0F921100F28EF28C42
:100098009D809E90800ECD6EF80ECF6E560ECE6E61
:1000A800CD801200720ED36E000E936E8A684AECF1
:0E00B80000F0FFD70F900F92000156EF00F0FE
:020000040020DA
:08000000FFFFFFFFFFFFFFFF00
:020000040030CA
:0E000000000C181EFF0181FF0FC00FE00F4023
:00000001FF
