:020000040000FA
:04000000DDEF3BF005
:1077B5000100000001B50EF66E770EF76E000EF8AB
:1077C5006E00EE0CF010EE05F00900F5CFEEFFE5CA
:1077D50050E150FAE1000EF86E0001F2EF3BF000C7
:1077E5000E956E000E8C6E938E938CF19E81BEFE6F
:1077F500EF3BF000EF3CF029EF3CF0820E0A6EDE25
:107805000EE82EFED70A2EFCD7102A050E1018D822
:10781500A40FEF3CF011EF3CF029EF3CF0010E1006
:107825006E29EF3CF04CEC3CF0F9EF3BF062EC3E9E
:10783500F0F9EF3BF0FDEC3CF0F9EF3BF027EC3FC6
:10784500F0F9EF3BF0AEEC3DF0F9EF3BF010500AEC
:107855006E0B6A0B50000AD8B433EF3CF0F9EF3BDE
:10786500F00A50010AD8B415EF3CF0030AD8B41950
:10787500EF3CF0010AD8B41DEF3CF0070AD8B4215B
:10788500EF3CF0010AD8B425EF3CF0F9EF3BF000EE
:10789500EF00F0000E046E000E036E04BE5CEF3CBC
:1078A500F0045009E1080E035CD8A05CEF3CF05EE3
:1078B500EF3CF060EF3CF0FCEF3CF003C001F00161
:1078C5000E026E012A69EF3CF0D8900236012E6750
:1078D500EF3CF002508C6E0C040D100E100F10D8FA
:1078E500A477EF3CF079EF3CF082EF3CF0820E019B
:1078F5006EDE0EE82EFED7012EFCD7D0EF3CF0024F
:107905000E0C180D100E100F10D8A48CEF3CF08E35
:10791500EF3CF09CEF3CF0020E026E040E016EBAD5
:107925000EE82EFED7012EFCD7022EFAD700D0D0B6
:10793500EF3CF0030E0C180D100E100F10D8A4A676
:10794500EF3CF0A8EF3CF0B6EF3CF0030E026E08FA
:107955000E016E770EE82EFED7012EFCD7022EFA09
:10796500D700F0D0EF3CF0040E0C180D100E100FE0
:1079750010D8A4C0EF3CF0C2EF3CF0D0EF3CF005CE
:107985000E026E0F0E016EF10EE82EFED7012EFCD3
:10799500D7022EFAD700F0D0EF3CF081BCD5EF3CF2
:1079A500F0D7EF3CF0F8EF3CF0820E016EDE0EE80A
:1079B5002EFED7012EFCD7010E0C26000E0D220E31
:1079C500220F22050E0C180D100E100F10D8A4EE64
:1079D500EF3CF0F0EF3CF0F8EF3CF0010E0C6E00E0
:1079E5000E0D6E000E0E6E000E0F6E034A042A5029
:1079F500EF3CF01200000E046E000E036E04BE0D87
:107A0500EF3DF0045009E1090E035CD8A00DEF3DF0
:107A1500F00FEF3DF011EF3DF0ADEF3DF003C0018C
:107A2500F0010E026E012A1AEF3DF0D890023601E0
:107A35002E18EF3DF002048C6E0C040D100E100F85
:107A450010D8A428EF3DF02AEF3DF033EF3DF0824A
:107A55000E016EDE0EE82EFED7012EFCD781EF3D1E
:107A6500F0020E0C180D100E100F10D8A43DEF3DAE
:107A7500F03FEF3DF04DEF3DF0020E026E040E01BA
:107A85006EBA0EE82EFED7012EFCD7022EFAD700CD
:107A9500D081EF3DF0030E0C180D100E100F10D80D
:107AA500A457EF3DF059EF3DF067EF3DF0030E02AF
:107AB5006E080E016E770EE82EFED7012EFCD7025A
:107AC5002EFAD700F081EF3DF0040E0C180D100EC4
:107AD500100F10D8A471EF3DF073EF3DF081EF3D2D
:107AE500F0050E026E0F0E016EF10EE82EFED701A7
:107AF5002EFCD7022EFAD700F081EF3DF081BC862F
:107B0500EF3DF088EF3DF0A9EF3DF0820E016EDE0E
:107B15000EE82EFED7012EFCD7010E0C26000E0D09
:107B2500220E220F22050E0C180D100E100F10D864
:107B3500A49FEF3DF0A1EF3DF0A9EF3DF0010E0C44
:107B45006E000E0D6E000E0E6E000E0F6E034A04D3
:107B55002A01EF3DF01200000E066E000E056E00C4
:107B65000E046E070E036E03C001F0010E026E01D6
:107B75002ABFEF3DF0D8900236012EBDEF3DF00251
:107B8500508C6E0C040D100E100F10D8A4CDEF3DC7
:107B9500F0CFEF3DF0D8EF3DF0820E016EDE0EE83E
:107BA5002EFED7012EFCD726EF3EF0020E0C180D47
:107BB500100E100F10D8A4E2EF3DF0E4EF3DF0F207
:107BC500EF3DF0020E026E040E016EBA0EE82EFEB7
:107BD500D7012EFCD7022EFAD700D026EF3EF003B0
:107BE5000E0C180D100E100F10D8A4FCEF3DF0FE72
:107BF500EF3DF00CEF3EF0030E026E080E016E77BE
:107C05000EE82EFED7012EFCD7022EFAD700F0265D
:107C1500EF3EF0040E0C180D100E100F10D8A41620
:107C2500EF3EF018EF3EF026EF3EF0050E026E0F28
:107C35000E016EF10EE82EFED7012EFCD7022EFAAC
:107C4500D700F026EF3EF081BC2BEF3EF02DEF3E46
:107C5500F04EEF3EF0820E016EDE0EE82EFED701ED
:107C65002EFCD7010E0C26000E0D220E220F22052A
:107C75000E0C180D100E100F10D8A444EF3EF04650
:107C8500EF3EF04EEF3EF0010E0C6E000E0D6E0055
:107C95000E0E6E000E0F6E054A062A0306D8A004C6
:107CA5000606BE5FEF3EF0065009E1080E055CD8FA
:107CB500A05FEF3EF061EF3EF0B6EF3DF012000041
:107CC5000E086E000E076E000E066E070E056E0896
:107CD500BE76EF3EF0085009E1080E075CD8A076A5
:107CE500EF3EF078EF3EF07AEF3EF026EF3FF005FD
:107CF500C001F0010E026E012A83EF3EF0D890021A
:107D050036012E81EF3EF007C003F0010E046E032D
:107D15002A8FEF3EF0D8900436032E8DEF3EF00407
:107D25005002248C6E0C040D100E100F10D8A49E5A
:107D3500EF3EF0A0EF3EF0A9EF3EF0820E016EDEC1
:107D45000EE82EFED7012EFCD7F7EF3EF0020E0C03
:107D5500180D100E100F10D8A4B3EF3EF0B5EF3E7E
:107D6500F0C3EF3EF0020E026E040E016EBA0EE88D
:107D75002EFED7012EFCD7022EFAD700D0F7EF3E04
:107D8500F0030E0C180D100E100F10D8A4CDEF3EF9
:107D9500F0CFEF3EF0DDEF3EF0030E026E080E0170
:107DA5006E770EE82EFED7012EFCD7022EFAD700ED
:107DB500F0F7EF3EF0040E0C180D100E100F10D852
:107DC500A4E7EF3EF0E9EF3EF0F7EF3EF0050E02D7
:107DD5006E0F0E016EF10EE82EFED7012EFCD702B6
:107DE5002EFAD700F0F7EF3EF081BCFCEF3EF0FE37
:107DF500EF3EF01FEF3FF0820E016EDE0EE82EFE25
:107E0500D7012EFCD7010E0C26000E0D220E220FD7
:107E150022050E0C180D100E100F10D8A415EF3FEB
:107E2500F017EF3FF01FEF3FF0010E0C6E000E0D47
:107E35006E000E0E6E000E0F6E074A082A0506D854
:107E4500A006066AEF3EF01200000E076E000E0651
:107E55006E000E096E000E086E000E056E000E0413
:107E65006E065008248C6E04C001F0010E026E00EF
:107E75000E036E012A42EF3FF0D890023603360119
:107E85002E3FEF3FF00F0E0216000E0316025006AE
:107E9500260350072204500708016E010E026E00EA
:107EA5000E036E012A5AEF3FF0D8900236033601D1
:107EB5002E57EF3FF0F00E0216000E031602500883
:107EC50026035009220C040D100E100F10D8A46EB5
:107ED500EF3FF070EF3FF079EF3FF0820E016EDE7D
:107EE5000EE82EFED7012EFCD7C7EF3FF0020E0C91
:107EF500180D100E100F10D8A483EF3FF085EF3F3B
:107F0500F093EF3FF0020E026E040E016EBA0EE81A
:107F15002EFED7012EFCD7022EFAD700D0C7EF3F91
:107F2500F0030E0C180D100E100F10D8A49DEF3F86
:107F3500F09FEF3FF0ADEF3FF0030E026E080E012C
:107F45006E770EE82EFED7012EFCD7022EFAD7004B
:107F5500F0C7EF3FF0040E0C180D100E100F10D8DF
:107F6500A4B7EF3FF0B9EF3FF0C7EF3FF0050E02C2
:107F75006E0F0E016EF10EE82EFED7012EFCD70214
:107F85002EFAD700F0C7EF3FF081BCCCEF3FF0CE23
:107F9500EF3FF0EFEF3FF0820E016EDE0EE82EFEB2
:107FA500D7012EFCD7010E0C26000E0D220E220F36
:107FB50022050E0C180D100E100F10D8A4E5EF3F7A
:107FC500F0E7EF3FF0EFEF3FF0010E0C6E000E0D06
:107FD5006E000E0E6E000E0F6E044A052A05BEFDDC
:107FE500EF3FF0055009E1050E045CD8A0FDEF3F19
:0B7FF500F0FFEF3FF033EF3FF0120011
:020000040020DA
:08000000FFFFFFFFFFFFFFFF00
:020000040030CA
:0E00000000091F1EFF8181FF0FC00FE00F409F
:00000001FF
